:020000022000DC
:106000000000012021620200796202007B6202002E
:106010007D6202007F6202008162020000000000D7
:106020000000000000000000000000008362020089
:10603000856202000000000087620200896202009F
:10604000099902008F620200459D020093620200DE
:106050009562020097620200C19B02009B620200EF
:106060009D6202009F620200A1620200A362020020
:10607000A5620200A7620200A9620200AB620200F0
:10608000AD620200E9700200B1620200B362020078
:1060900085710200B7620200D9070300BB620200EB
:1060A000BD620200BF620200C1620200C362020060
:1060B000C5620200C76202008B6202008B620200AE
:1060C000C9620200CB620200CD620200CF62020010
:0C60D00079C20200D3620200D562020017
:1060DC00314932480A1A02D0072291438D46304981
:1060EC0030480A1A06D00722914381F3098802220C
:1060FC0082F314882C482D492D4A00F03CF82D4889
:10610C002D492E4A00F037F82D482E492E4A00F022
:10611C0032F82E482E492F4A00F02DF82E482F49E0
:10612C002F4A00F028F82F482F49304A00F023F866
:10613C002F483049304A00F01EF8304830490022D0
:10614C0000F024F82F483049002200F01FF82F4AA5
:10615C0090471F481F49884205D00268043003B499
:10616C00904703BCF7E700208646EC460020002150
:10617C00274A9047FEE7884207D0521A05D0037889
:10618C0001300B700131013AF9D17047884202D0CD
:10619C0002700130FAE770470000012000E0002097
:1061AC0000000120000001205C3A03005081002017
:1061BC00488A0020D8620200D8620200F422030050
:1061CC005C3A03005081002050810020A42403007D
:1061DC00A4240300A4240300A4240300A424030087
:1061EC00A4240300A4240300A42403005C3A0300A9
:1061FC0054430300488A0020488A0020488A002023
:10620C00A4A20020A4A20020ACA20020456202009F
:10621C0075B802000F484FF00701884385460E48B9
:10622C0080470E48016841F470010160BFF34F8F45
:10623C00BFF36F8FFFF74CBF09480A490A4A8842DF
:10624C0007D0521A05D0037801300B700131013A96
:10625C00F9D17047000001201D93020088ED00E089
:10626C0044240300F080002050810020FEE7FEE76C
:10627C00FEE7FEE7FEE7FEE7FEE7FEE7FEE7FEE7EA
:10628C00FEE7FEE7FEE7FEE7FEE7FEE7FEE7FEE7DA
:10629C00FEE7FEE7FEE7FEE7FEE7FEE7FEE7FEE7CA
:1062AC00FEE7FEE7FEE7FEE7FEE7FEE7FEE7FEE7BA
:1062BC00FEE7FEE7FEE7FEE7FEE7FEE7FEE7FEE7AA
:0C62CC00FEE7FEE7FEE7FEE7FEE700BF8E
:1062D800004870479CA200207047000007B5044B97
:1062E8000093044A402300F032F803B05DF804FB41
:1062F80001630200498A00202DE9F84389461446C3
:10630800B2B10F4B0F4E0325002743F00108224678
:1063180009EB0701002006F049F80744241A48B998
:1063280033782BB14FF47A40C047013D02D1357024
:10633800BDE8F88301233370002CE8D1F8E700BFEB
:10634800B0240300488A0020704706F083B8F0B5EF
:1063580095B01C46164608460D4602F0C0FE1A9B2C
:106368000D93CDE9086400242346082205A9284690
:106378000A948DF82C400C9402F0EDFE079B0293D2
:10638800069B03939DF814308DF8114003F0030227
:10639800012A1DD1BDF81440059EC3F3C203C4F3FE
:1063A80083148DF81030A20008230EA9284602F0A5
:1063B800D2FEC6F3952608AB0093224602AB0EA97F
:1063C800304600F0F3FB284602F08DFE15B0F0BD14
:1063D800022AF8D1BDF81640C3F3C203A4098DF808
:1063E80010300827082C264628BF08263B46324688
:1063F8000EA9284602F0AFFEA41B08AB02AA31463C
:106408000EA8374400F036FC002CEBD1DBE7000087
:10641800014B01221A707047CA8A00207047000099
:1064280070B50E4D06460FCD88B06C460FC495E882
:106438000F00002E84E80F004FF00603084A0948B1
:10644800009308BF0022694603F0E8F908B100F09C
:106458009BFD054B1E7008B070BD00BFC42403002F
:106468001964020050810020898A002007B5044B76
:106478000093044A4023FFF76AFF03B05DF804FB6A
:10648800916402008A8A002038B50D4B0D4D00201A
:1064980018700D4804782D5DD2B21C4665B10430E1
:1064A80004F084F808B100F06FFD084B1A7812B1B7
:1064B8002378002BFBD038BD0C3003F073FEF1E7D6
:1064C800CA8A00201093002050810020898A002069
:1064D80008B50848084A0378D35C3BB1043004F097
:1064E80001F80020BDE80840FFF79ABF0C3003F020
:1064F800F5FDF6E750810020109300200120FFF7FA
:106508008FBF000038B5094CFFF71FFF0125042194
:10651800204600F0BBFA6572054CFFF7EFFF042137
:10652800204600F0B3FA657238BD00BF64810020D0
:1065380070810020037813F0030F03F0040202D0E7
:1065480012B910467047B2B103F00303012B03D010
:10655800022B09D0012070470A6800880232C0F374
:10656800831002440A60F5E70B684288023303EBA4
:1065780092130B60EEE70B684288013303EB92132A
:106588000288F4E72DE9F04F87B000230446851C04
:106598000DF107000F4690468DF8073000F0E2FF36
:1065A800454806683E60D0E90132134401339B1B1D
:1065B800824600F21C4600F5836900F21447AB429C
:1065C8001BD30022B8F1000F70D0052363F3070234
:1065D80064F38912DAF80010DAF808309DF8070039
:1065E8000B4003330D444AF82320CAF8005000F04A
:1065F800DDFF012007B0BDE8F08F0121304602F031
:106608003AF8484602F050F8384602F04DF8DAF801
:106618000400DAF808B0029000EA0B0003300AEB35
:10662800800002A9FFF786FF029B50BB0BEA03021A
:106638000AEB820203F1020CD2680392013303EAE7
:106648000B0B0AEB8B0B02F00302012ACDF808C0F2
:10665800DBF80C1022D0022A16D08346384602F006
:1066680026F810B1029BCAF804305946304602F0A9
:1066780002F8DAE901231344DAF8002001339B1AFF
:106688009DE70BEA0300C9E7BDF80E309B09033309
:106698004FEA114B0CEB93030293DFE7BDF80C3084
:1066A800C3F383134FEA114B6344F5E7062363F3FF
:1066B800070264F39F528DE79C8B002008B50E4BB0
:1066C8000E48FF229A600022C3F81824C3E900226A
:1066D800C3F8142483F8202402F0BAFC38B9084A15
:1066E800084B09499B1ADB0802469A4200D108BDAB
:1066F80021F822200132F8E79C8B002004240300B3
:106708006C23030004240300F080002030B50A4CF9
:1067180071B10A4A0A49121BD20800239A4201D1D0
:10672800002030BD31F82350854202D00133F5E70F
:10673800034654F83300F4E76C23030004240300F1
:10674800F2800020094B013903EBC000032909D866
:10675800DFE801F00A020406042070470079704758
:106768004079704700207047022070476C2303006F
:10677800034BD3E90030C31A58425841704700BF51
:106788009C8B00202DE9F04786B0FFF7F1FF064605
:10679800002840F0F3807A4DC5F81804BFF34F8FF6
:1067A8006868AC6802902040033005EB800002A9BD
:1067B800FFF7C0FE029B074600285FD104EA0302E8
:1067C800991C013305EB8202234005EB8303D26851
:1067D800DB68049302F00303022B0392029162D157
:1067E800BDF80E3067484FEA9319B9F1500FCA4601
:1067F80028BF4FF0500A6AF38F130AF10801ADF869
:106808000E3002F03DFC8046002800F0A58002F022
:1068180066FC03A93B460822404602F073FC029935
:1068280024EA01060136B600B24535D95FFA8AFA7C
:106838007EB3F6B2AAEB060A214003315FFA8AF466
:10684800B246514E05EB810108235246404602F0FC
:1068580059FC36B10AF1080322463146404602F097
:1068680051FC029B09F1030903EB99030293D5F844
:106878001834002B4AD1D5F8104458E02A689A42B7
:1068880004D86A60304606B0BDE8F08704EA030021
:106898008AE73D493446D7E7214003310823524669
:1068A80005EB8101DAE7012B56D1BDF80C303548EC
:1068B800C3F38311062928BF062161F38913023126
:1068C8008900ADF80C3002F0DBFB8046002843D08D
:1068D80002F005FC3B46082203A9404602F012FCE0
:1068E800BDF80C20C2F38312BB00974203F10803E2
:1068F800BDD202994A1C21400331029205EB810165
:106908000422404602F0FEFB0137E9E7404602F068
:10691800EAFBFFF72DFF80F00100C6B2B2E7637A09
:1069280023B1236841461B68204698476468002CB9
:10693800F5D1404602F0D7FB0DF107008DF807406E
:1069480000F010FED5F818340BB9029B6B609DF867
:10695800070000F02BFEDCE7D5F8104444B90B4BD8
:106968000B491888000440F0020000F06BF8D0E7EB
:10697800236820469B6898476468EFE7002681E70C
:106988009C8B002004240300A88B00200481002095
:10699800F02403002DE9F74F284C80460F46924615
:1069A80001A9012218469B46D4F80890FFF7EAFD92
:1069B80080B3019D0026A91C5E4506EB010233D178
:1069C80000211F4801F016FE80F310006A1C02EA3D
:1069D800090204EB8202000405EA0903033340EAD2
:1069E8001840D06014F8232068F3C50204F8232067
:1069F80034F8232066F3891224F8232054F823203E
:106A080067F39F2244F8232002F0F80242F00102C3
:106A180004F8232094F820341BB1FFF7B3FE0028B4
:106A2800FBD103B0BDE8F08F09EA020204EB820251
:106A38005AF82630D3600136BEE700BF9C8B002091
:106A4800B88F002000231A46FFF7A4BF07B501231B
:106A5800019201AAFFF79EFF03B05DF804FB07B59A
:106A6800CDE9002302236A46FFF794FF03B05DF8DF
:106A780004FB1FB5CDE90123069B039301AA032359
:106A8800FFF788FF05B05DF804FB00000F4930B53B
:106A9800D1F810440023224642B90372D1F81044B9
:106AA8004CB9C1F810044260184630BD157A9D42B1
:106AB80005D05268F0E7626842606060F4E701332D
:106AC8000A2BE8D14FF0FF33EEE700BF9C8B002084
:106AD800084A38B50123D2F8104482F820341D46FC
:106AE80004B938BD2368657220465B6898476468B6
:106AF800F6E700BF9C8B0020037A052B10B50C46E7
:106B08000FD0437A23B1084A0849204601F032FEE3
:106B18000749204601F02EFE2046BDE8104001F04E
:106B28001EBE002AF8D0F3E74B25030050250300CA
:106B38009E320300C38873B504460D4633B1144A28
:106B480000921449144A284601F014FE217A0529B6
:106B58001CD0637A4BB1A088FFF7F4FD0F4B1049A6
:106B680053F82020284601F005FE227A0D4BA08814
:106B780053F822600021FFF7C9FD0B49034632464E
:106B8800284602B0BDE8704001F0F4BD02B070BD07
:106B98004B2503005B25030053250300182503003C
:106BA8005025030080250300732503002DE9F043D9
:106BB80085B01F460C9D002306460C46904695F866
:106BC8000C902B7329463846FFF7B4FFB8F1060F2F
:106BD80009D8DFE808F00412181F283340003146AE
:106BE800284601F0C7FD002229463846FFF784FFF2
:106BF80085F80C9005B0BDE8F08322683146284638
:106C080001F0B8FDEFE7D4E900233146284601F04A
:106C1800B1FDE8E7A36800933146D4E9002328468C
:106C280001F0A8FDDFE7E3680193A368009331460C
:106C3800D4E90023284601F09DFDD4E72369029397
:106C4800E3680193A36800933146D4E900232846FA
:106C580001F090FDC7E76369039323690293E36832
:106C68000193A36800933146D4E90023284601F034
:106C780081FDB8E708292DE9F84F80460E461746EA
:106C88001C4636D8002593F80C901D7319461046FB
:106C9800FFF750FFDFF87CA0DFF87CB0AE422AD9BE
:106CA80018F805205946204601F064FD0135082DE5
:106CB800F4D11649DFF864B0204601F05BFD0025E9
:106CC800AE421DD918F805A050460AF05BF8002816
:106CD80014BF52462E225946204601F04BFD01357D
:106CE800082DEDD1012221463846FFF705FF84F82B
:106CF8000C90BDE8F88F5146204601F03BFDD5E7E2
:106D08000349204601F036FDE9E700BF46250300A8
:106D180044250300422503003C25030048250300C1
:106D28002DE9F04F394E87B04FF00009384B1B78EA
:106D38005FFA89F5AB4202D807B0BDE8F08F354B52
:106D4800D3F800A01AF835000124D6E9001EA0F1F6
:106D58002002C0F1200304FA02F224FA03F31343D9
:106D680004FA00FC009301EA0C030293009B0EEA6C
:106D780003030393DDE9022313430AEBC50B41D058
:106D8800009B21EA0C012EEA0303C6E9001302F076
:106D980009FF1AF835502049A5F12002C5F1200352
:106DA80004FA02F224FA03F31343D1E900C2AC4017
:106DB800134004EA0C0105930024C3B2CDE9003462
:106DC800009A0491C5F12003A5F1200122FA03F3EA
:106DD80002FA01F848EA03081346AB401F46DDE90A
:106DE8000434444508BFBB420CD1DBF804304BB136
:106DF8009BF801104A1E51425141081A4142414133
:106E08002846984709F1010990E700BFF08F002054
:106E1800C08F0020F88F0020E88F00202DE9F04176
:106E28008046204800F08EFBD0BB0125A8F1200445
:106E3800C8F1200325FA03F305FA04F41C431A4B9E
:106E4800D3E9001205FA08F501EA050602EA040783
:106E580056EA07001E461DD1404602F0A3FE134B1A
:106E6800D3E9001288B129432243C3E90012D6E9C5
:106E780000231C430E4B0B4819681543C6E9005400
:106E88000022BDE8F04100F017BB21EA050122EA23
:106E98000402EAE721EA050522EA0404C3E90054EA
:106EA800BDE8F081C88F0020F08F0020E88F002017
:106EB800C48F0020042A2DE9F34105460C461646E6
:106EC8003AD902F0ADFDD8B11C4B1D491D601D4BD0
:106ED800DFF884801C701C4B00221E600023C1E96F
:106EE80000231A49C1E90023013CE4B20026032724
:106EF800FF2C0CD1164A1748002100F0CBFA03E00A
:106F080002F054FD0028DFD002B0BDE8F08123B2C2
:106F180005EBC30201A992788DF8052015F8330016
:106F28008DF8066042468DF8047002F083FD013C3E
:106F3800E4B20028DCD0E7E70720E5E7F88F002077
:106F4800E88F0020C08F0020C48F0020F08F002021
:106F5800296D0200E0250300256E020070B5084D7A
:106F6800084E00242B789C4201D3002070BD336862
:106F7800012113F8340002F0D1FD0134F2E700BF1B
:106F8800C08F0020F88F00201FB50021039001AAB0
:106F980044F20100CDE9011100F004F805B05DF8F4
:106FA80004FB000010B572B6FFF792FDFFF7EAFB8D
:106FB8000028FBD1104C11492088000440F0010042
:106FC800FFF740FD0E4B1B68DB0700D500BE20888D
:106FD8000C49000440F00200FFF734FDBFF34F8F67
:106FE80009490A4BCA6802F4E0621343CB60BFF355
:106FF8004F8F00BFFDE700BF04810020E425030098
:10700800F0ED00E0F025030000ED00E00400FA05D3
:10701800094A537891780133DBB2994208BF0023BB
:10702800117899421FBF03705078182303FB002082
:1070380014BF043000207047FC8F002073B505464C
:1070480000240DF107000E468DF8074000F08AFA7B
:107058000DF10600FFF7DCFF90B10670094B9DF8B3
:10706800062045605A709DF8070000F09FFA24B981
:10707800054B4FF48012C3F80021204602B070BDC2
:107088000424F0E7FC8F002000E100E0024B4FF4FD
:107098003C6043F0010318470026030038B50C4B49
:1070A8000C4C4FF40032C3F8802001254FF4803394
:1070B800C4F84833C4F808336560FFF7E7FF064BA8
:1070C800A56000241C60FFF7E1FF044B1C7038BD6D
:1070D80000E100E000100140189100200991002013
:1070E800F8B51F4B1F491B680025C1F84051C1F86E
:1070F8004451C1F84851C1F84C51C1F80051C1F888
:1071080004514BB3D1F8044517490968641A24F0AF
:107118007F442F461A68A24209D8A41A15441A7C3B
:10712800DE691AB11F74D3E905209047AEB90F4A3A
:107138000F4B11781B788B4205D10133DBB2022B40
:1071480008BF0023137012780A4B43F822500A4BE9
:107158004FF48012C3F80021F8BD3346DAE700BFC8
:107168001C9100200010014018910020159100206A
:10717800149100200C91002000E100E02DE9F04F6F
:10718800A14AA24913780978A14D994285B03CD00B
:107198000133DBB2022B08BF002313709D4912781C
:1071A8009D4B0F6853F822003B1823F07F430022C1
:1071B8000B602B6816461446944613B942B12B60EF
:1071C80006E0196881420ED902B12B60091A1960CC
:1071D80001272B68DFF848A201934FF00008BEB9D9
:1071E800DFF844B266E0401A0C44D968C3F800C01E
:1071F800D3F81CE031B13A1922F07F42C3E90121EA
:10720800DE611E4601227346D7E700263746E0E7CF
:107218003446F6697F4A63681268DFF810C2A068CE
:10722800991A21F07F41614500F2A680014421604E
:10723800012222742A680023C4E90133E361002A89
:1072480040F0A3802C60CAE75A1C9BF80210D2B207
:1072580091428BF8002004BF00228BF800201822EE
:1072680002FB03B31A799C68022A1CD0032A12D0A5
:10727800012A1FD1207CE8B9D3E90312A2605A6918
:10728800E2609A69654BA2611B78002B0CBF0B4624
:1072980003466360BEE700222B681146002B67D1C6
:1072A80042B12B6006E029680A468946002A5AD16D
:1072B800002323749BF800309BF801209A42C3D125
:1072C8002B68B8F1000F04D1019A9A4201D1002F1E
:1072D80043D0002B73D0D3F800A0514D4D4BD5F8B7
:1072E80004751C68DFF848813E1B98F8003026F0CA
:1072F8007F4603369BB94FF48033C5F84433C5F84D
:107308000433484B4FF400324FF00109C3F8802191
:107318001A60C5F80090FFF7B9FE88F80090B245EA
:107328002CBF5444A41924F07F44C5F84045D5F82F
:107338000435DB1B23F07F43E41B033324F07F4435
:10734800A3420AD9D5F80435C5F84035FFF79EFEA3
:10735800344B4FF40032C3F80021304B00221A702E
:1073680005B0BDE8F08F94422CD09146D2699DE7D4
:1073780019740122DB6991E7D31A23F07F43834212
:1073880034BFC31A0023236052E721681368994267
:1073980013D8591A1160E26154E7091AD8691A46D4
:1073A80038B1034618688842F7D3401A186018465F
:1073B80013462160E061DC6111E71346F2E7FFF74D
:1073C8006DFECAE74C4511D1CB692B6073B9DFF864
:1073D80044E00120CDE90212CAF80800CEF80030D6
:1073E8000E4B1870FFF752FEDDE902121368D269DE
:1073F800C9F81C2012B11068034413602B68994225
:1074080018BF4FF0010853E7149100201591002090
:107418001C910020189100200C9100200891002058
:107428000010014000E100E0FC8F0020FEFF7F001B
:107438000991002008B5FFF731FE104B00200B2200
:1074480018809A700E4B18600E4B18700E4B1870FF
:107458000E4B4FF48012E021C3F8802183F81413F7
:107468001A6002F18042A2F56F22C2F8080583F87B
:107478001113074BD2F804251A6008BDFC8F0020B1
:107488001C910020149100201591002000E100E0DB
:1074980018910020074B9B784BB132B128B1036893
:1074A800187C20B959745A61704707207047082022
:1074B800704700BFFC8F00202DE9F7431E4FBB78B3
:1074C80005460E469046A3B398B304292FD94369BD
:1074D8007BB3437C0024012B0DF107000CBF8946C8
:1074E800A1468DF8074000F03DF80DF10600FFF7C2
:1074F8008FFDD0B101230370104B4560D3F80435DC
:10750800C0E90498C0E902369DF806307B709DF802
:10751800070000F04BF824B9094B4FF48012C3F868
:107528000021204603B0BDE8F0830424EFE70724D8
:10753800F7E70824F5E700BFFC8F002000100140A2
:1075480000E100E0064A92783AB130B1426922B1CE
:10755800002202740221FFF771BD0820704700BFA6
:10756800FC8F002070B5EFF3108672B60C4A946851
:1075780001239CB993600B4B0B4DD3F88010294025
:107588001160C3F88050D3F8841051604FF0FF3277
:10759800C3F88420047006B962B670BD0370FAE7B8
:1075A8002091002000E100E0FC06FFBD084B9A682E
:1075B80010B55AB150B9EFF3108172B6054A1C687C
:1075C80014605C685460986001B962B610BD00BF71
:1075D8002091002000E100E070B5064D0646002429
:1075E80055F8043B0BB1304698470134042CF7D1C9
:1075F80070BD00BF38910020033080B240F2FD33E7
:10760800984230B51FD8124B1A783AB91C895D894F
:107618002C440444A4B2B4F5806F0AD31A7DA2B9ED
:107628009A8BDC8B2244024492B2B2F5806F0CD262
:1076380001220A801446142202FB04335A8910449A
:107648005881002030BD0920FCE70720FAE700BF79
:107658006C9100200B4A0C4B5188142000FB01311F
:10766800CB6833B90420496810700122074801F03B
:10767800E5BA05230649137002238B8001220023F3
:107688000968F3E7509100206C9100203C810020AC
:107698002492002007B5002305490093054A09688C
:1076A8000548082301F046FA03B05DF804FB00BF63
:1076B80024920020142603003C81002007B50023F3
:1076C800009301460823034A034801F033FA03B044
:1076D8005DF804FB0C2603003C81002013B5002351
:1076E8000C46009301460423074A084801F022FA91
:1076F80038B9074B142202FB04340123237402B067
:1077080010BD0E20FBE700BF082603003C810020C7
:107718006C91002037B50A480A4B42689C88196862
:1077280053880325033305709BB2002000909B000B
:1077380001EB8401044801F0FDF903B030BD00BF3E
:1077480050910020249200203C81002010B5014671
:10775800044800F083FE1C22044600210AF09FF929
:10776800204610BD7C81002068B10268084B9A420F
:1077780009D14068074B984207D0013398420CBFA3
:10778800012003207047032070470020704700BF86
:10779800DEC0ADDEFE011EF14388033300EB830338
:1077A800994209D382884FF6FF739A4206D000881F
:1077B800B0FA80F0400970470220704701207047F6
:1077C8002DE9F8430223DFF860800B800D46174649
:1077D80000F5805600F108044FF00109B4420FD2B9
:1077E800236801330CD031462046FFF7D5FF48B156
:1077F8000FB187F8009002280BD14FF480632B80DB
:10780800BDE8F883A368D8F80020934201D9C8F8E6
:1078180000302B886288033313442B80638803333A
:1078280004EB8304DAE700BF64910020154A1423AF
:1078380003FB002070B50B6844680D4604F58056BC
:10784800ABB15C88033403EB8404B4420DD22368E3
:1078580001330AD031462046FFF79EFF01280BD09E
:1078680010F0FF0F05D00228EFD1002003E0083404
:10787800EBE72C60012070BD6388033304EB8304BD
:10788800E3E700BF6C910020436873B504460D46DA
:1078980063B3234AD1688B4228D31269934225D80F
:1078A80013F0030022D11F4A2189128991421DD168
:1078B80021689A68914219D11B4A51688B4203D9B1
:1078C80001F580518B420DD3926993420CD902F590
:1078D8008052934208D201232B80B0FA80F04009ED
:1078E80002B070BD0346F7E70A20F6E700232B80B5
:1078F8001E46019601A92888FFF798FF30B92B8802
:1079080001339BB2012B2B80F3D9E9E7019B226855
:1079180099689142EED16360024B1B892381DFE7AE
:107928003C810020509100206C9100202DE9F84303
:107938001C461C4B1B7806460F4615466BB372B3A4
:107948006CB3DFF868804FF01409A388012B01D9C4
:107958000A2020E009FB03F318F803302BB921466D
:10796800A088FFF763FF20B92060A3880133A380B4
:10797800EBE723681EB1998832889142EFD11FB195
:1079880019883A889142EAD19A68C5E90023064BDA
:107998001B892B810020BDE8F8830220FBE7052026
:1079A800F9E700BF48910020509100206C91002019
:1079B80008B5074B191D5888FFF738FF18B1BDE8FF
:1079C8000840FFF7A7BEBDE80840FFF743BE00BF69
:1079D800509100202DE9F04FA04FDFF8A49289B014
:1079E8000646B8463B6823B949469D4800F070FDF5
:1079F8003860D8F8005029784B1E052B00F2FA8021
:107A0800DFE813F006005E005E00EE00EE005C01A9
:107A180026B1944B00225A600124ECE02B79032B09
:107A28001DD8DFE803F015022A358F490B78022BA1
:107A3800084619D00B7D022B4FF0010316D11422F2
:107A48005343C2180020C8545068FFF737FE03E0BC
:107A580001232B71FFF71EFE002800F0BC80814B2C
:107A680000225A600E24C6E00023E8E77D4A13701E
:107A78000023536041F61D54BDE07C497C48002337
:107A880002222B718A800122096801F0D7F8E3E706
:107A9800764C00262E712068734DFFF70FFE754B4C
:107AA800D4F800C05A8814235343EA18EE54516896
:107AB8002160A188C2F804C011810222A280CBE70C
:107AC800B5F814A0AA7DDFF8A0B1AEB1022AEB8800
:107AD80006D9142101FB0AB1DA1C088902440A817B
:107AE800142202FB0ABAC3F57F43BAF80A20FD3311
:107AF8001344AAF80A308FE7142303FB0AB3188942
:107B08005C6804EB8004062A68D8DFE802F0274D99
:107B180035431D59040041F61D54AA7DEB88022AFD
:107B280006D9142101FB0AB1DA1C088902440A812A
:107B3800142202FB0ABAC3F57F43BAF80A20FD33C0
:107B48001344AAF80A3056E04B484C4900234360D6
:107B5800AB690360FFF798FE002871D00223AB756C
:107B6800002300930423EA182146414800F0E2FF6D
:107B7800002830D00E24D0E72B69002B14BF032334
:107B88000123AB750023009305F10C02042304F1D3
:107B98000801EAE70123AB750022EB8800929B00FD
:107BA8002A6904F10C01E0E703290CBF0523062329
:107BB800AB7500230093042305F10802E118D4E70C
:107BC8000623AB752D4B19882B4B5868FFF786FD9C
:107BD80004460028A1D109B0BDE8F08F0F249CE726
:107BE800002E7FF419AF2B79012B4BD0E3B1022B78
:107BF8003FF440AF0F241422002103A809F04FFFDF
:107C080041F61D539C4208BF0024D8F80030049464
:107C18001A78023A042A00F20581DFE812F0E60039
:107C2800F20015011D01240102232B710DF10A0137
:107C3800EB68039303A8CDE90466FFF725FE08B9AE
:107C48000A24D8E70498BDF80A108388EB800388D3
:107C58002B81FFF743FD044627E000BF6891002011
:107C68007C810020489100206C9100202492002003
:107C78003C810020509100202C910020309200205F
:107C880060910020DFF8FCA103AA53463146A81DE5
:107C9800FFF74CFE044658B9BAF804100498FFF7E9
:107CA8001DFD04460A2C3FF4E5AE002CA3D192E753
:107CB80008223146504609F0F2FEF3E7002E7FF421
:107CC800ABAE6B4B1A7BAAB11E731A78013A062A1F
:107CD80090D801A151F822F0877D0200AD7D020005
:107CE800CB7D0200D17D0200FD7B0200D77D020022
:107CF800E97D02001A78072AE7D801A151F822F095
:107D0800297D0200D37C0200D37C02004F7D020053
:107D1800637D0200837D0200837D02004B7D0200AB
:107D28001A89544901321A8100225A801A730A7832
:107D3800B2FA82F252099A720A7DB2FA82F25209B2
:107D4800DA72012207E04C4958688A884088033271
:107D580002448A8002221A70B7E7464C5A8846497C
:107D6800142505FB02420868546850608888108111
:107D780002228A800C600622EDE70722EBE79A7A56
:107D880032B9DA7A8AB900221A705A805A6071E6D2
:107D9800384900229A72CA68002AF2D1097C00295F
:107DA800EFD05A80FFF704FE55E70022DA72314A15
:107DB800116A0029E7D192F82420002AE3D0012291
:107DC800EFE7FFF7A7FC46E7FFF744FC43E7294A3C
:107DD8005B88142101FB03235868FFF76FFC3AE71F
:107DE80000225A60FFF756FC35E701228DF80C2077
:107DF8001A89ADF818209A88DB68ADF81A2005931F
:107E080010E002228DF80C201A89ADF818209A8803
:107E1800ADF81A20DA689B7D05929A1F53425341A8
:107E28008DF81C3003A8FFF7D7FB002649461348F6
:107E3800C8F8006000F077FB0121114800F026FC2B
:107E480000287FF4CFADC6E603228DF80C20DA882F
:107E5800ADF818201A89CFE70422DB888DF80C20AA
:107E6800ADF81830DEE705238DF80C30DAE700BFEF
:107E7800509100206C910020249200207C810020E9
:107E880020920020349200204068FFF7A3BD000034
:107E980008B50121044800F0E3FB18B9BDE8084023
:107EA800FFF798BD08BD00BF209200202DE9F341DF
:107EB8009846354B1B7806460D46002B5BD00029AB
:107EC8005BD009884FF6FF73994258D06B88002B16
:107ED80055D06B689B0754D14AB92F890DF102011F
:107EE8003846FFF789FB30B102B0BDE8F08113884E
:107EF8005788ADF8023001A8FFF728FC044658B9A6
:107F0800BDF80230214A142101FB032358890338A4
:107F1800C01B58810820E7E700238375BDF80230AD
:107F280083826B68036180F800800121184800F0A3
:107F3800A2FB2B882381B8F1030F6B88A38004BFB1
:107F48000423A3754FF0000508BF3368E06008BF3D
:107F5800A361E780658101A90E4800F0A9FA36B14E
:107F6800E36833600C4B75601B89B5723381FFF78A
:107F78008FFF0020B8E70220B6E70520B4E7042009
:107F8800B2E70320B0E700BF489100206C910020C1
:107F9800649100207C8100205091002008B5084B96
:107FA8001A68042A09D01968064A42F821000121F2
:107FB800184600F060FB002008BD0C20FCE700BF5D
:107FC8002C920020389100202DE9F04F14228BB01C
:107FD80000210DEB020009F062FD744A137803F0EA
:107FE800FF01CDE901123BB105A8FFF7F5FA00271B
:107FF80038460BB0BDE8F08F029B181D00F051FB0E
:108008000028F4D14FF010234FF080525B691169BA
:108018005269674C581C08BF02FB01F32361002218
:10802800A3F540536349E360204600F055FD0394EF
:1080380007460028DCD11C238C225F495F48DFF803
:108048008891DFF8888100F0D4F9BA463D464FF0B0
:10805800030B3C46039BDE68564430463146FFF727
:1080680083FB01284DD042B2002A36D0032822D102
:1080780006F580520868013040F08A800431914248
:10808800F8D1D9F800203AB902220123C9F80060D2
:10809800A9F8042001930CE014226243022008EBA3
:1080A800020108F80200464A4E60548001340881F3
:1080B800A4B245F001050AF5805ABAF5405FC9D166
:1080C800BBF1010F98BF0025EDB2022D03D0062D9C
:1080D80035D0002D3CD10B278AE71421614308EBEA
:1080E800010008F8012001F11002083146604244FD
:1080F80041443046FFF764FB45F002050134A4B261
:10810800D9E7019B63B11422624308EB0201022004
:1081180008F802000134D9F800204A600881A4B2A6
:1081280000222849C9F800603046FFF749FBB9F832
:108138000420022A0CBF042208221543BBE7029A36
:108148000123137005A800235360FFF745FA4FE792
:1081580004A8FFF7FBFAC8B10123013D03700A2DFB
:1081680009D8DFE805F006080608070807080F1110
:108178000F000023037104A9104800F099F9FFF7D4
:1081880087FE35E70323F5E70223F3E708272FE700
:108198000BF1FF321FFA82FB1422624308EB020143
:1081A8004E60032108F80210A8E700BF489100209C
:1081B8003C81002018280300949100207C81002035
:1081C8005091002028920020249200206C910020D9
:1081D80073B50D460446C8B1C1B10DF10601FFF7EC
:1081E80053FBA8B10B4BBDF806006668142202FBCE
:1081F800003001210C3000F03EFA63682E600C3329
:108208006B600123A372002002B070BD0520FBE75C
:108218000A20F9E76C91002013B50446A8B10DF1C6
:108228000601FFF731FB90B10B4ABDF80630142167
:1082380001FB0323DA6862B1A27A52B1DA6800203E
:10824800013ADA60A07202B010BD0520FBE70A20EF
:10825800F9E70620F7E700BF6C9100200B4B1B786D
:1082680037B504460D4663B168B10DF106012846DD
:10827800FFF7C2F918B9BDF806302380658003B04E
:1082880030BD0220FBE70520F9E700BF4891002038
:10829800104B1B7810B5B3B1B8B10288022A16D8B2
:1082A8000D494388142404FB02129C1C51898C42FA
:1082B8000DDAC3F57F43FD330B445381002303805C
:1082C8004380184610BD0220FCE70520FAE7042089
:1082D800F8E700BF489100206C910020022300229B
:1082E800FFF7E4BD12B10223FFF7E0BD0520704798
:1082F80018B103230022FFF7D9BD052070470000FD
:10830800104B1B7813B50446ABB14FF6FF73984278
:1083180013D001A8FFF71AFA88B1052303700123C7
:108328000371C48001A9084800F0C2F8FFF7B0FD46
:10833800002002B010BD0220FBE70420F9E7082066
:10834800F7E700BF489100207C8100200E4B1B7886
:1083580007B5A3B101A8FFF7F9F990B10623037097
:1083680001A90A4800F0A4F8094B1A780AB10122B9
:108378001A73FFF78DFD002003B05DF804FB02209F
:10838800FAE70820F8E700BF489100207C81002028
:108398005091002007B5ADF80600ADF804100DF1B6
:1083A800060001A9FFF7C2FA03B05DF804FB07B5A0
:1083B8001346ADF806000A4600200DF10601FFF746
:1083C800B5FA03B05DF804FB07B51346ADF806002F
:1083D8000A460DF106000021FFF7A8FA03B05DF880
:1083E80004FB20B119B103680B6000207047052019
:1083F800704710B561B1B2FBF3F403FB1424A4B2C7
:1084080044B9C0E9001484608281C381204610BD4C
:108418000E20FCE70920FAE782B050E8022FC18855
:10842800B2EB324F4FF0000317BF92B241EA01415D
:1084380042EA014104E04268B2EB324F08BF01232F
:1084480040E80212002AE8D18DF807309DF807307D
:10845800002B0CBF1120002002B0704737B550E840
:10846800013F9DB2C48925448489A54228BF2D1B9C
:108478000489A54202BFBFF32F8F002207E0C5EA97
:10848800030540E80154002CE9D14FF001028DF8B2
:1084980003200193019B9DF803200B6002F0FF036A
:1084A80022B10B880068184403B030BD1846FBE7BA
:1084B8000A884B889A4209D150E8012FC2EA024241
:1084C80040E80123002BF7D10120704700207047B6
:1084D80037B550E8023F1FFAA3F5C488A54202BF8A
:1084E800BFF32F8F00220DE0C48925448489A5425B
:1084F80028BF2D1BC3EA054540E80254002CE8D1EB
:108508004FF001028DF803200193019B9DF8032091
:108518000B6002F0FF0322B14B880068184403B0D7
:1085280030BD1846FBE70A884B889A4209D150E8C3
:10853800022FC2EA224240E80223002BF7D1012091
:1085480070470020704701F01F024B09012191403C
:1085580000EB830000F063B84B0910B501F01F046D
:108568000121A14000EB830000F04EF8E04000F04C
:10857800010010BD01F01F0301229A404B0900EBD6
:108588008300D14300F061B84B0901F01F0150F896
:108598002300C84000F0010070472DE9F0474E1E47
:1085A800760980460F460136002558F8254008EB25
:1085B8008509E44394FAA4F4B4FA84F44FEA451A1A
:1085C800202C06D10135AE42EFD83C462046BDE806
:1085D800F0875444A742F5D921464046FFF7BCFF2F
:1085E8000028F3D0D9F80040E44394FAA4F4B4FA8C
:1085F80084F4E5E750E8002F0B4640E8003C9CF087
:10860800000FF7D11046704750E8002F42EA0103E7
:1086180040E8003C9CF0000FF6D11046704750E847
:10862800003F43EA010240E8002C9CF0000FF6D11D
:108638001046704750E8002F02EA010340E8003C6A
:108648009CF0000FF6D11046704750E8003F03EA4F
:10865800010240E8002C9CF0000FF6D1104670474C
:1086680050E8002F02EB010340E8003C9CF0000FAB
:10867800F6D11046704750E8003F03EB010240E88E
:10868800002C9CF0000FF6D11046704750E8003FD0
:10869800A3EB010240E8002C9CF0000FF6D1104635
:1086A80070470121FFF7B0BF0121FFF7B8BF0021D4
:1086B800FFF7C0BF10B590B1D0E9012301689B1A3C
:1086C800DBB20A60013BDBB2FF2B026802D100205B
:1086D800107110BD11684C1C14600B70F2E70E206D
:1086E800F7E737B5054600240DF107008DF8074078
:1086F800FEF738FF2A686B68116899420ED9481E40
:10870800106011F8014CEB68A98A01FB0434AB68CE
:1087180011791B1ADBB2994238BF13719DF8070013
:10872800FEF744FF204603B030BD37B505460023A9
:108738000DF107000C468DF80730FEF713FF2A6885
:108748001368591C1160E968641AA98AB4FBF1F42A
:108758001C709DF80700FEF729FF03B030BD826842
:1087680010B504462AB14369016800699847002397
:10877800A36010BD0EB403B5039921B104AB01AADF
:10878800019300F06DF802B05DF804EB03B0704798
:10879800826830B40468551C8560A154D0E9013260
:1087A8009A4202D330BCFFF7DABF30BC70470000F2
:1087B8002DE9F84F9946DDE90A431746824688466F
:1087C8000A460126BA420FD24E4538BF4E4613F02C
:1087D800010B01D164B900240125B9F1010F1AD99F
:1087E80009F1FF397D43F8E7B2FBF7F20136E9E713
:1087F8009B070ED5B9F1000F0CBF30252025A642E6
:10880800EAD2013C29465046FFF7C2FF002CF6D1B8
:10881800E1E72025F3E7B8FBF5F39F42E2D9DFF85B
:108828003C90B8FBF5F3504619F8031005FB138884
:10883800FFF7AEFFB5FBF7F3BD4207D2BBF1000F60
:1088480002D00CB1A64203D3BDE8F88F1D46E8E775
:1088580020215046013CFFF79BFFF2E72B2603003F
:108868002DE9F74F054617468846002900F0308164
:1088780018F8011B49B92B7B002B00F029812846E9
:1088880003B0BDE8F04FFFF76ABF252940F0C0806C
:10889800002698F800302D2B424608F1010823D015
:1088A800302B24D02B2B25D000242A2B02F10101B8
:1088B80023D13B681A1D1B683A601C440A4613788A
:1088C8002E2B26D101324FF00009104610F8011B5B
:1088D800A1F1300CBCF1090F1DD80A2303FB0913C1
:1088E800A3F130090246F0E746F00106D1E746F069
:1088F8000206CEE746F00406CBE711F8013CA3F1E7
:1089080030000928DBD80A2202FB0434303C0A462E
:10891800CBE74FF0000912F8011B01F0FB006828B3
:108928009046F8D069290ED04AD8582964D006D87C
:1089380025296DD098F80030002B99D19BE7632941
:1089480062D06429F6D13A68D2F800A0111D8AEAEB
:10895800EA723960A2EBEA724FF0010B092A5BDC7C
:10896800CB4538BFCB462CB1BAF1000F01DB7207FB
:1089780000D5013CB30702D5B9F1000F04D0F007C8
:1089880002D4002C4ED10024BAF1000F52DACAF1F9
:10899800000A2D212846FFF7FBFE06F00302022AF3
:1089A80005D1B9F1000F02D1002C47D10024CDE93F
:1089B80000464B460A2251462846FFF7F9FEB9E71A
:1089C80073294CD014D87029B4D13B681A1D3A6069
:1089D800302128461C68FFF7DBFE78212846FFF780
:1089E800D7FE00220823CDE9003221461022E3E712
:1089F80075292BD078299DD139680A1D3A60CDE9AF
:108A080000464B46102228E03B681A1D19783A6048
:108A18002846FFF7BDFE8DE70A230BF1010BB2FBD9
:108A2800F3F29BE7A345AFD220212846013CFFF78C
:108A3800AFFEA6E77107B0D52B21ABE7A345B6D2A9
:108A480030212846013CFFF7A3FEADE73968CDE9A0
:108A580000460A1D3A604B460A220968ACE73B68A3
:108A68001A1D3A6016F00106D3F800A020D1BAF119
:108A7800000F03D0504609F067F80646B44200D903
:108A8800C4B90AF1FF3A1EE028460136FFF780FE16
:108A98001AF806100029F7D1A642BFF44BAF002CF4
:108AA8003FF448AF20212846013CFFF771FEF3E769
:108AB8000026EDE720212846013CFFF769FEDDE7A7
:108AC8002846FFF765FE1AF8011F0029F8D131E79B
:108AD80003B0BDE8F08F000007B50B4678B9104B1E
:108AE800104A18880E2300930F4B00040F4940F0DA
:108AF8000100FDF7BEFF0E2003B05DF804FB3BB993
:108B0800074B0B4A18880E2300930004064BEDE729
:108B180003601B68114603B05DF804EB184700BFFB
:108B280028810020E82603003B260300ED260300E9
:108B3800642703002DE9F34178B9354B354A188885
:108B4800354B0E2400040094344940F00100FDF731
:108B580090FF204602B0BDE8F0813AB92C4B304A6C
:108B680018882D4B0E2400040094EDE7D0F800C0BF
:108B7800BCF1000F07D1264B2A4A1888264B082437
:108B880000040094E0E73BB9214B274A1888224BA0
:108B9800092400040094D7E74768D7F80480B3FB9A
:108BA800F8F708FB17373FB1194B204A18881A4BBA
:108BB800092400040094C7E78F0707D0144B1C4A08
:108BC8001888154B102400040094BDE712F0030F19
:108BD80007D00F4B174A18880F4B10240004009435
:108BE800B2E7C768B9420BD34C1E05691C44AC42B6
:108BF80006D8DCF80C40A44602B0BDE8F041604756
:108C0800034B0D4A1888044B1024000400949BE77A
:108C180028810020E82603004D260300ED260300E6
:108C28006A2703005E2703001D270300702703003F
:108C38009A270300B2270300D5270300F7B570B9B8
:108C4800254B264A1888264B0E24000400942549F3
:108C580040F00100FDF70DFF204603B0F0BDD0F84D
:108C680000C0BCF1000F07D11B4B1F4A18881C4BD2
:108C7800082400040094EAE73AB9174B1B4A1888FD
:108C8800174B092400040094E1E74768D7F800E08F
:108C98000EF1FF370F4207D00F4B154A1888104BBB
:108CA800102400040094D2E7C768B9420CD34C1EC4
:108CB80005690EFB0244AC4206D8DCF81040A44615
:108CC80003B0BDE8F0406047034B0A4A1888044BDC
:108CD800102400040094BAE728810020E826030045
:108CE80060260300ED2603005E2703001D2703000E
:108CF800732603009926030070B508B10368ABB961
:108D08000C4D0D4C0026641B1423B4FBF3F4B44241
:108D180001D1002009E02B6813B901361435F6E7B4
:108D2800DB69284698470028F7D070BDDB69BDE8A5
:108D3800704018473C8100205081002029DF70478F
:108D480028DF704770B503689D6886B004460E46F4
:108D58006DB114220021684608F0A1FEA3680593AE
:108D6800237901962BB1012B0DD06846A84706B090
:108D780070BD01238DF8003023690293E3680393E3
:108D880063690493F1E702238DF80030E3681B035D
:108D98000293F5E70846704700207047024B187A9F
:108DA800003018BF01207047C8920020034B187A82
:108DB8000122B0FA80F05A7440097047C892002026
:108DC80008B510461A4608F041FE002008BD00000C
:108DD80008B514220021044808F061FE0348FFF793
:108DE8001BFB002008BD00BFC89200209081002016
:108DF80010B5094C094B43602046FFF752FC40B9B7
:108E080007F0CCFC1C2320748C2205490548FFF789
:108E1800F0FA002010BD00BFC89200200C28030003
:108E28003C9200209081002070B5244C244E237A77
:108E380025463BB923492448FFF74AFB306008B967
:108E4800606070BD346802232B72237973B1012BE3
:108E580024D020460321FFF775FF00232B726B6097
:108E680018491948BDE87040FFF75DBBD4E90523F0
:108E7800D21AB2F5805F28BF4FF48052D4E90310AC
:108E88009208012A38BF012219441844FFF756FFF7
:108E980050B11128DDD101232B72D2E7D4E90303A5
:108EA8001844FFF74DFFF3E72B7C002BC9D101468F
:108EB800BDE87040022000F009B800BFC892002049
:108EC800E0920020DC9200209081002038B5831EBB
:108ED800012B45D8234C237A002B41D0022B09D1F2
:108EE800032830D0204B1B680022E2601A793AB17F
:108EF800012A22D0637C7BBBBDE83840FFF794BFD2
:108F0800D3E905128D1AB5F5805F94BF521902F5A1
:108F180080529A619142EDD102284FF0000308BFB8
:108F280019462372104B18BF0D211868FFF70AFF66
:108F38000E490F48FFF7F7FADCE71A6901321A61A0
:108F48005B699A42E7E7E3680133082B01D8E360DD
:108F5800D0E70023E360DFE7BDE8384007F00EBC48
:108F680038BD00BFC8920020E0920020DC920020AB
:108F78009081002000F0FD03012B08D1044B002252
:108F88005A74421E504250411874FFF74DBF704743
:108F9800C892002010B5064C201DFFF782FB28B9A7
:108FA800637C1BB9BDE81040FFF73EBF10BD00BF92
:108FB800C89200202DE9F34180460D460F4801A9CB
:108FC80016461F46FFF74AFA0446A8B11C2200219C
:108FD80008F065FD2D0B0123237101A9C4F8008059
:108FE800A760E56066610548FFF762FAFFF7D2FF00
:108FF800002002B0BDE8F0810420FAE7908100204B
:109008002DE9F74381468846104801A917461E46B0
:10901800FFF724FA0446B0B11C22002108F03FFDF6
:1090280000250A9BA36001A92571C4F80090C4E932
:10903800037866610548FFF73BFAFFF7ABFF284660
:1090480003B0BDE8F0830420FAE700BF9081002058
:10905800FFF730BBF8B546790146721E0546002376
:1090680093422D6803D30024A64202D8F8BD0133E9
:10907800F6E70F682846FFF758FB01343946F3E74F
:109088002DE9F843868ACD1C0746FFF72AFB043EE4
:1090980035440446B5FBF6F5F0B14FF48073EDB2F4
:1090A8008380C680013D076081464FF00008A845CF
:1090B80012D23846FFF715FB064648B163790133EB
:1090C800637108F10108C9F8000007608146EEE7FE
:1090D8002046FFF7BFFF34462046BDE8F88301214C
:1090E8000430FFF7C8BA10B5012104460430FFF771
:1090F800CDFA10F0FF0F04D12046BDE81040FFF76D
:10910800A9BF10BD2DE9F843C7880546181D884634
:10911800B0FBF7F4164607FB14003CB9A7EB0009AF
:10912800B14528BFB14626B9BDE8F8832D68013C92
:10913800F3E70430A6EB09064A4608EB0401284485
:1091480008F084FCB7424C442D68B9464FF0000043
:1091580028BFB146E7E72DE9F843C7888846191DB7
:109168000546B1FBF7F4164607FB14113CB9A7EB0B
:109178000109B14528BFB14626B9BDE8F8832D6875
:10918800013CF3E704312944A6EB09064A4608EBFB
:10919800040008F05BFCB7424C442D68B9464FF018
:1091A800000128BFB146E7E741DF7047064B10B51D
:1091B80000241C70054B1C60BFF35F8F04490548F1
:1091C80000F030F8204610BDEC920020F09200200C
:1091D80048280300E492002007B500230DF107009A
:1091E8008DF80730FEF7BEF9F1EE103A23F09F0331
:1091F800E1EE103ABFF35F8F094B4022C3F8842198
:109208009DF80700FEF7D2F907F0C8FA20B1FFF77A
:10921800CBFF03B05DF804FB20BF40BF20BFF8E7D9
:1092280000E100E00B684A684360934208BF0023EE
:10923800016008BF43607047436843B102689168A2
:1092480052680B449342436004BF00234360704755
:1092580010B50D49A1F59472914201D800200FE094
:109268008B1ADB1003EBD3735B1002EBC30452F8C9
:109278003330834205D802D204F10802ECE7606873
:1092880010BD2146E8E700BF9829030008B5FFF79D
:10929800DFFF024B002808BF184608BD5D28030001
:1092A8000C4B1B78062B10D10B4B1B681A070CD1E3
:1092B8000A4B186800F0F003302B08D000F0E000EB
:1092C800A0F14003584258417047002070470120E0
:1092D800704700BFE00F00F0E40F00F0E80F00F067
:1092E800094B1B78062B0CD1084B1B681A0708D1B1
:1092F800074B186800F0F000A0F1300358425841BD
:1093080070470020704700BFE00F00F0E40F00F046
:10931800E80F00F008B5FFF7C3FF28B17D4B7E4A80
:109328001B68C3F304231360FFF7DAFF10B17B4B0C
:109338007B4A1A60FFF7B4FF28B17A4B7A4A1B6858
:10934800C3F342331360FFF7CBFF20B1774AD368EA
:1093580023F08073D360FFF7A3FF40B14FF0804341
:109368000022C3F80C21C3F81021C3F83825FFF7F1
:10937800B7FF10B16E4B03221A60FFF7B1FF40B17F
:109388006C4B05221A6001229A6700229A603F22DC
:109398005A60694B1B78062B50D1684B1B6819071C
:1093A8004CD1674B1B6803F0F003502B46D14FF0AC
:1093B8008052644BD2F80414C3F82015D2F808146C
:1093C800C3F82415D2F80C14C3F82815D2F81014D1
:1093D800C3F82C15D2F81414C3F83015D2F81814A1
:1093E800C3F83415D2F81C14C3F84015D2F8201469
:1093F800C3F84415D2F82414C3F84815D2F8281431
:10940800C3F84C15D2F82C14C3F85015D2F8301400
:10941800C3F85415D2F83414C3F86015D2F83814C8
:10942800C3F86415D2F83C14C3F86815D2F8401490
:10943800C3F86C15D2F84424C3F87025FFF730FF41
:1094480028B1414B414A1B6803F04F031360FFF7F3
:1094580027FF48B14FF08043D3F80024D20744BF18
:109468006FF00102C3F80024394B1B68062B08D1A2
:10947800384B1B68062B01BF374A136843F48063D7
:109488001360364AD2F8883043F47003C2F8883043
:10949800BFF34F8FBFF36F8F4FF01023D3F8002225
:1094A800002A03DBD3F80432002B2FDA2C4B0122DD
:1094B800C3F80425D3F80024002AFBD04FF010226B
:1094C8001521C2F80012D3F80024002AFBD04FF06F
:1094D80010231522C3F80422214B1A46D3F800148E
:1094E8000029FBD00021C3F80415D2F80034002B62
:1094F800FBD0BFF34F8F19491A4BCA6802F4E062D8
:109508001343CB60BFF34F8F00BFFDE7164B174ADD
:109518001A6008BD240300104035014074C007409C
:109528000DF0ADBA440200103C050040F0ED00E03B
:10953800A005004010560040E00F00F0E40F00F0D6
:10954800E80F00F000C0004058020010E40E004090
:1095580030010010340100103C17004000ED00E01D
:1095680000E001400400FA05A48100200090D00327
:10957800054A4FF0A043105CD3F8043523FA00F0F5
:10958800C04300F001007047562D0300044B1A5CDD
:10959800012393404FF0A042C2F80C35704700BF3A
:1095A800562D0300044B1A5C012393404FF0A04250
:1095B800C2F80835704700BF562D030008B50020D3
:1095C800FFF7F0FF0120FFF7EDFF0220FFF7EAFFAA
:1095D8000320BDE80840FFF7E5BF08B50020FFF706
:1095E800D5FF0120FFF7D2FF0220FFF7CFFF0320AE
:1095F800BDE80840FFF7CABF074A4FF0A041105C1A
:10960800D1F804350122824022EA03001340C1F850
:109618000805C1F80C357047562D0300054A4FF070
:10962800A043105CD3F8103523FA00F0C04300F0D3
:1096380001007047522D03000D2809D00E2809D0CB
:109648000F2809D010280CBF03204FF0FF307047B7
:10965800002070470120704702207047C20708B5F4
:1096680001460CD54FF0A0430322C3F84427C3F8A2
:109678004827C3F84C27C3F85027FFF79FFF8B07ED
:109688000AD54FF0A0430C22C3F83427C3F8382773
:10969800C3F83C27C3F8402708BD000038B5074C7D
:1096A800051E04F1080318BF1C4623682BB11A686D
:1096B80022605B6828469847F7E738BDFC9200208F
:1096C80020B9054B01225A70FFF7E8BF012802D1E3
:1096D800014A9070F8E77047F492002020B9034BD4
:1096E80001225A70FFF7DABF704700BFF4920020DA
:1096F80038B50B4C237883B90A486360A3602361AB
:10970800E36000F0D1F8054607F048F808B900F022
:10971800D7F801232370284638BD8525FBE700BF0D
:10972800F4920020C996020037B50B4C00230DF1C6
:1097380007008DF80730FDF715FFE368013BE3608C
:10974800E56815B900F0D0F8A5709DF80700FDF799
:109758002DFF03B030BD00BFF4920020012813B5DF
:1097680009D018B103281CD002B010BD0F4B01223C
:10977800C3F88020F8E70E4C00230DF107008DF8A0
:109788000730FDF7EFFE23780BB9FFF7B1FFE36869
:109798009DF807000133E3600123A370FDF706FF7E
:1097A800E2E700F08DF8FFF7BFFFDDE700E100E03A
:1097B800F49200201FB503788DF8003043680193B8
:1097C800037A8DF80830C3680393054A054B684649
:1097D80053F8213052F82110984705B05DF804FB82
:1097E800089300200C9300201FB503788DF80030F3
:1097F8004368019383688DF80830C3680393054A6A
:10980800054B684653F8213052F82110984705B0A7
:109818005DF804FB089300200C930020F0B5184B6A
:10982800077891F81DE043F82720164B16460A6979
:1098380043F82720144B03F807E00C4684460FCC66
:1098480089B06D460FC594E80F0085E80F000497AE
:10985800BEF1000F0AD0002E0C4A694608BF3246F6
:109868000CF1040000F076FD09B0F0BD002E084AA6
:10987800694608BF32460CF10C0000F06FFBF3E7B5
:109888000C9300200893002010930020BD9702003D
:10989800F197020000F18040002382B00360036862
:1098A8000193019B02B07047044A137923B901213F
:1098B80010609180184670478520704714930020E7
:1098C800084B1A68D20706D4E02283F80023012245
:1098D800C3F880211A604FF080430122C3F818258D
:1098E800704700BF00E100E0044B01221A604FF00E
:1098F8008042D2F81834DB03FBD470470C000040D8
:10990800124B1B6810B573B14FF48070FFF7C2FF9C
:109918004FF080430122C3F808230D4B587910B942
:109928005A711B6898470B4B1B6873B14FF48270D0
:10993800FFF7B0FF4FF080430222C3F80823044B1F
:1099480001201B68BDE81040184710BD0001004009
:10995800149300200401004000F1804000F5C0404D
:10996800002382B0036003680193019B02B0704733
:10997800800000F1A040D0F8003723F44033C0F84D
:109988000037D0F8003743EA0141C0F800177047A4
:10999800054B4FF0FF32072843F8202084BF1B18DF
:1099A80083F84820704700BF1C93002010B5184C5E
:1099B80094F8583053BB04F130032021FF220139B9
:1099C80011F0FF0103F8012BF9D1C8B2FFF7E0FF4E
:1099D80001310C29F9D1042200210E4808F05FF862
:1099E8000D4BE02283F806234022C3F880214FF470
:1099F800BE701A60FFF7B0FF084B4FF00042C3F883
:109A08000423012384F85830002010BD0820FCE707
:109A18001C9300207093002000E100E000600040EB
:109A2800034B93F85800003018BF0120704700BF5F
:109A38001C930020F0B5374B1C1894F93040002CCB
:109A48001C4664DA8D78C5F34005002D0BBF08234A
:109A580000230C260826B34201D10420F0BD54F897
:109A6800237001373FD1261844F8232086F8303078
:109A780015B9E21882F848008A78550713D4D60732
:109A880033D5820002F1A042D2F8005725F0020532
:109A9800C2F80057204EC50800F007070122BA4057
:109AA800775D3A4372558A780D7812F0020225D014
:109AB8009B0003F1804303F5C0430202D3F810155D
:109AC80021F4473121F44071C3F810152D04D3F85F
:109AD800101502F4F85205F440352A430A43C3F836
:109AE80010250020BAE70133B5E74D7800F5E0729C
:109AF8004FF0A046AD0046F82250CBE7083B234480
:109B080093F8501041EA851583F85050E9E708208A
:109B1800A4E700BF1C9300207093002038B51F4CA9
:109B2800251895F93020072A17DD224492F84810A5
:109B3800890903290CD14FF0A043D3F81035C3404D
:109B480013F0010F08BF0221BDE83840FFF710BF2E
:109B5800012914BF03210221F6E7D3B2072B1CD831
:109B6800930003F1804303F5C043D3F8100540F098
:109B78000100C3F8100502F14000800080B2FFF731
:109B8800EBFE51B195F9303054F823302BB1012355
:109B980003FA02F2024BC3F8042338BD1C930020D9
:109BA800006000404FF0A043D3F8103523FA00F0CE
:109BB80000F00100704700002DE9F04F85B0002447
:109BC8005A4D01944FF48072012102F1804303F54C
:109BD800C04390B21B68012B06D1D5F804330B4261
:109BE80002D0FFF7B9FE0C430432B2F5907F4FEA7A
:109BF8004101EAD14E4B1B68012B0AD14FF4BE70CC
:109C0800FFF7AAFE4FF0A04344F00044D3F8103504
:109C1800019314F0FF0F1AD0464F00250126344255
:109C280010D0AB0003F1804303F5C043D3F810050F
:109C3800D3F8101557F8253023B1C1F30141C0F30B
:109C4800042098470135082D4FEA4606E7D1002C35
:109C580064DA00224FF0FF33CDE90223354D0127A6
:109C68004FF0000A344E54464FF0A04816F9012B25
:109C7800531C46D0D2B222F0C0094FEAD90104A839
:109C8800084402F0070310F804CC07FA03F31CEAAF
:109C9800030F36D005EB090C92099CF930C055F832
:109CA8002CB0BBF1000F0AD1032A2AD10DF1080EFE
:109CB8001EF801C04CEA030C0EF801C001E0032AAB
:109CC800F4D009F5E07110F80C0C58F8211018427E
:109CD800C1F3014105D0022913D1032A0BD1114642
:109CE80004E003290DD1032A05D102214846FFF7D4
:109CF8003FFE0134E4B2BBF1000F02D011464846E2
:109D0800D8470AF1010ABAF1040FAFD134B14FF0C4
:109D1800A043019AD3F81035934202D105B0BDE8AB
:109D2800F08F0193029B03939AE700BF0060004005
:109D38007C6100401C9300206C930020014B1B6841
:109D4800184700BF789300200E4B984237B50D4650
:109D580002D0002003B030BD00230DF107008DF8BC
:109D68000730FDF7FFFB084B1C7914B901221D6071
:109D78001A719DF80700FDF719FC002CE9D0112095
:109D8800E8E700BF0020004078930020034B98428A
:109D980001BF034B00221A601A717047002000406F
:109DA800789300200023435082B043580193019BCD
:109DB80002B070470A4610B54FF48E71FFF7F2FFF4
:109DC800136A9168C95C136A01331362C0F81C15E1
:109DD80010BD8B690A4610B54FF4847123B9FFF79B
:109DE800E1FFD0F8183510BDFFF7DCFF536AD168E2
:109DF800D0F81805C854536A01335362F3E70000DA
:109E08001FB501238DF80030044BCDE90110D3E9CB
:109E180000126846904705B05DF804FB8093002067
:109E280030B54C4AD2F8043313F4007F85B0154698
:109E38004FD0D2F82431002B4BD04FF492711046FA
:109E4800FFF7B0FF4FF40173C2F80833424B93F8A1
:109E5800291009B9012151603E4902228DF80020DC
:109E6800D1F88024C1F8802403929A690292DA68B2
:109E780001920022C3E906226846D3E900129047FE
:109E88003448D0F81C315BB133490A6A4B699A42AD
:109E98000A464BD291F82830002B47D1FFF78AFFAA
:109EA8002C4AD2F8443193B14FF4A2711046FFF70F
:109EB80079FF294B93F8291009B1012111609A699A
:109EC8002AB100229A61586AD968FFF799FF05B04C
:109ED80030BDD5F804335B07D2D5D5F80831002B4F
:109EE800CED01D4C1B482146FFF773FF636AA26959
:109EF8009A422346C4D1E269E1684AB12369E36022
:109F08000023606AA261E3616362FFF779FFB7E744
:109F180094F829200AB901226A600E4A4FF40170A8
:109F2800C2F8080300229A61586AEEE74FF48E716E
:109F38000848FFF737FF51690029B1D00023029183
:109F480091688DF80030019153616846D2E9001399
:109F58009847A5E700200040809300202DE9F843AA
:109F68005A4B047991462C2202FB0432064692F899
:109F78002A200D469846002A40F0A38054490068DC
:109F8800FFF7E2FE0746002840F09D802968336805
:109F9800481C0BD04FF0A04001228A40C0F8082589
:109FA80001F5E0724FF0030C40F822C06868421CCB
:109FB8001FBF00F5E0724FF0A04C4FF0000E4CF8B8
:109FC80022E0AA6995F814C0C3F824256A7DBCF17B
:109FD800010F4CEA0202C3F86C25C3F81405C3F854
:109FE8000C151DD1AA68511C1FBF02F5E0714FF076
:109FF800A0404FF0000C40F821C0E968481C0BD085
:10A008004FF0A04C01208840CCF8080501F5E0701D
:10A018004FF0030E4CF820E0C3F80815C3F81025DC
:10A028002C23634308EB0302C2F804902A6948F81A
:10A038000320B9F1000F31D04FF48E7130682D7FB5
:10A04800FFF7B0FE30684FF4A271FFF7ABFE32683D
:10A05800204BC2F80433120B53B2002BA8BF03F1F4
:10A0680060404FEA53134FEA4511BABF1A4802F04D
:10A078000F0500F561404FEA8303C9B203F160435D
:10A08800B4BF415580F8001303F5614302F01F0285
:10A09800012101FA02F2C3F880211A603368042210
:10A0A800C3F800252C2303FB04830022C3E90622FE
:10A0B80083F829205A61012283F82A203846BDE80E
:10A0C800F8830827FAE71127F8E700BF80930020F4
:10A0D800299E02008000020014ED00E0F8B5047922
:10A0E80000682D4D0023C0F800352C2303FB0453D2
:10A0F8005B6873B1294BC0F80833020B53B20121D6
:10A108005B0902F01F0201FA02F22033244941F8E8
:10A118002320D0F80C65D0F81415D0F80835D0F8FD
:10A1280010254FF0FF37BE42C0F8147518BF06F56A
:10A13800E076C0F80C75C0F80875C0F810751EBF39
:10A148004FF0A0474FF0020C47F826C04E1C1FBF27
:10A158004FF0A04601F5E071022746F82170511C26
:10A168001FBF4FF0A04102F5E072022641F82260BD
:10A178005A1C1FBF03F5E0734FF0A042022142F8BA
:10A188002310FFF703FE2C2303FB0454002384F859
:10A198002A306360F8BD00BF80930020840202006B
:10A1A80000E100E02DE9F047214F06794FF02C0936
:10A1B80009FB067480466569002D37D16261A1608C
:10A1C80025624FF48E71006884F82850FFF7EAFD85
:10A1D800D8F80000012383602146FFF7EBFD636890
:10A1E800A14693B9D8F800A0226A63699A4212D3AB
:10A1F800D8F80030D3F81C21002AFBD00122DA60FD
:10A208002C2303FB0676002373612846BDE8F087FC
:10A2180094F8283043B9DAF81C31002BF8D04946B5
:10A228005046FFF7C7FDDFE70F25E9E71125ECE703
:10A23800809300200023435082B043580193019B30
:10A2480002B070471FB501238DF80030054B8DF81B
:10A25800080001916846D3E90012904705B05DF8FF
:10A2680004FB00BFAC9300207FB5384AD2F82461C4
:10A27800002E49D010464FF49271FFF7DBFF0223FE
:10A288008DF80030D2F88034C2F880340393D2F8C5
:10A298003C358DF808302E4BDA6801920022C3E96C
:10A2A80006226846D3E900129047284AD2F844317A
:10A2B80073B14FF4A2711046FFF7BCFF244B9969A4
:10A2C80031B100219961D2F83C05D968FFF7BAFF8E
:10A2D8001E4AD2F82031ABB14FF490711046FFF707
:10A2E800A9FF1B4B596969B1D2F84C158DF80810B4
:10A2F800002299688DF8002001915A616846D3E9D7
:10A308000012904704B070BDD2F81031002BCCD0A9
:10A318004FF488711046FFF78DFF0D4BD2F83C05BE
:10A3280099698842C1D1DC69D96864B1D2F8005210
:10A3380025F02005C2F800521A699C61DA60DE61D6
:10A34800FFF780FFB1E79C61FAE700BF00200040FB
:10A35800AC9300202DE9F8435E4B06799146242200
:10A3680002FB0632044692F820200D469846002A41
:10A3780040F0AB8058490068FFF7E6FC0746002824
:10A3880040F0A58029682368481C0BD04FF0A040F6
:10A3980001228A40C0F8082501F5E0724FF0030C4D
:10A3A80040F822C06868421C1FBF00F5E0724FF0F9
:10A3B800A04C4FF0000E4CF822E0AA6995F814C0A2
:10A3C800C3F824256A7DBCF1010F4CEA0202C3F8E8
:10A3D8006C25C3F80C15C3F814051DD1AA68511CC7
:10A3E8001FBF02F5E0714FF0A0404FF0000C40F89D
:10A3F80021C0E968481C0BD04FF0A04C01208840D0
:10A40800CCF8080501F5E0704FF0030E4CF820E099
:10A41800C3F80815C3F810252423734308EB030277
:10A42800C2F804902A6948F80320B9F1000F3BD01C
:10A438004FF4887120682D7FFFF7FCFE4FF4907170
:10A448002068FFF7F7FE4FF492712068FFF7F2FEDD
:10A4580020684FF4A271FFF7EDFE22681F4BC2F887
:10A468000433120B53B2002BA8BF03F160404FEA2C
:10A4780053134FEA4511BABF194802F00F0500F50A
:10A4880061404FEA8303C9B203F16043B4BF415549
:10A4980080F8001303F5614302F01F02012101FA5D
:10A4A80002F2C3F880211A6023680822C3F8002545
:10A4B800242303FB06830022C3E906225A610122F2
:10A4C80083F820203846BDE8F8830827FAE71127E3
:10A4D800F8E700BFAC93002071A20200100302004D
:10A4E80014ED00E0F8B5047900682D4D0023C0F89C
:10A4F8000035242303FB04535B6873B1294BC0F870
:10A508000833020B53B201215B0902F01F0201FA62
:10A5180002F22033244941F82320D0F80C65D0F802
:10A528001415D0F80835D0F810254FF0FF37BE4283
:10A53800C0F80C7518BF06F5E076C0F81475C0F8B9
:10A548000875C0F810751EBF4FF0A0474FF0020CF9
:10A5580047F826C04E1C1FBF4FF0A04601F5E0711A
:10A56800022746F82170511C1FBF4FF0A04102F589
:10A57800E072022641F822605A1C1FBF03F5E073FF
:10A588004FF0A042022142F82310FFF7FFFB2423DB
:10A5980003FB0454002384F820306360F8BD00BF37
:10A5A800AC9300201003020000E100E001F06043DA
:10A5B800B3F1005F2DE9F041074632D11B4B067914
:10A5C800242505FB063598466C6964BB6A61A96059
:10A5D80000684FF49071FFF72DFE4FF4AC713868A6
:10A5E800FFF728FE3B686A69A968C3F84415C3F8F1
:10A5F800482501229A606A6862B9D3F82021D3F805
:10A60800584152B9002CF8D00F24242303FB0686A6
:10A61800002373612046BDE8F081002C18BF0F2489
:10A62800F3E71024F6E71124F4E700BFAC93002009
:10A638000220FEF7E1BF00002DE9F04781460D46F4
:10A64800FEF7FAFF0328044604D8012D04D025B3E9
:10A65800022D2FD0BDE8F087194D47003A18A918E8
:10A66800AE5C4A7852B1DFF86880164842464FF42B
:10A678000041FCF721FF08B988F800903B192B44EA
:10A688009A78114B1A55002EE4D0104B1B68002BFA
:10A69800E0D03046BDE8F04718470A48FCF752FFBB
:10A6A800074B04EB440213449E78074B1B5DB342EF
:10A6B800D0D1E8E7024B00EB40041C446678E2E79F
:10A6C80034940020F49300204D94002048940020F6
:10A6D800D093002002210078FFF7AEBF08B5094BE0
:10A6E8001B7853B10020FEF75DFF0120FEF75AFFEB
:10A6F8000320BDE80840FEF755BFBDE80840FEF757
:10A708005DBF00BFD1930020F8B5794C237805468A
:10A718001BB100232370FFF7E1FF172D00F284809F
:10A72800DFE805F00C13133F5061727C848984893B
:10A73800919696969696C0C5CDD5E0E0FFF7CEFFE8
:10A748006C4B00241C702046F8BD0020FEF710FF5B
:10A75800F8B10020FEF726FF022D0CBF4FF4E1618F
:10A768004FF47A61634B1D704FF400404FF4FA7454
:10A778000025E0FB01454FF47A7200232046294664
:10A7880006F06CF9002201465B48BDE8F840FCF78A
:10A7980093BEFEF7FBFE022D0CBFC8214FF4C87113
:10A7A800E0E70020FEF7E4FE40B10020FEF7FAFEE5
:10A7B8004FF448714F4B03221A70D5E7FEF7E6FEB7
:10A7C800C821F7E70020FEF7D3FE38B10020FEF7D6
:10A7D800E9FE4FF47A61474B0422EDE7FEF7D6FE17
:10A7E8004FF4C871F7E70020FEF7C2FE48B1002019
:10A7F800FEF7D8FE3F4B05221A7041F69A11002247
:10A80800C2E7FEF7C3FEF5E70020FEF7F5FE394B79
:10A8180006221A70002240F6CD41B5E70020FEF767
:10A82800B5FE344B07221A7000248CE701202070F3
:10A83800FEF7E2FEEEE701202070FEF7DDFE0022C3
:10A848004FF48041A0E7FEF7C8FE2A4B0C22EAE746
:10A858002A482B4EFCF776FED5F1110504461CD08C
:10A86800D8B9012D13D0C8235D434FF400474FF4E6
:10A87800FA7000214FF47A720023C7FB050106F035
:10A88800EDF8224601461D48FCF716FE0446022054
:10A89800FEF77CFE0123337055E70220FEF782FEA7
:10A8A8000023F8E7FFF71AFF124B1222BBE7FFF766
:10A8B80015FF0020FEF76AFE0E4B1322B3E7FFF7E1
:10A8C8000DFF0120FEF762FE0A4B1422ABE7FFF7EB
:10A8D80005FF0020FEF75AFE0120FEF757FE054B44
:10A8E8001522A0E7FEF779FE024B1D709CE700BF1A
:10A8F800449400204C94002014940020D493002009
:10A90800D1930020044B1B68DB0703D5034B187851
:10A91800FFF7FABE704700BF409400204C94002017
:10A92800032801D8FEF77ABE0020704738B51C4BC3
:10A9380018601C4B10F00204054619601AD01A4B17
:10A948001A480E221A700F22DA7010229A711122F8
:10A958005A72042140F26662FCF7ACFA044648B920
:10A96800FCF7FCFA044628B90146114A1148FCF7DD
:10A9780091FD0446EB0711D50120FEF76FFE6CB977
:10A9880021460D4A0D48FCF785FD044630B90C4AAE
:10A998000C480121BDE83840FCF77CBD204638BD95
:10A9A8004094002048940020349400207C2D03001B
:10A9B800DDA60200A02D03000DA90200A42D0300AE
:10A9C80039A602009C2D0300032813D8012A0BD1B5
:10A9D800012908D100F10E02D2B200EB40000C4B65
:10A9E8001A540020704700220129F6D04BB24BB10F
:10A9F800022901D007207047054B00EB400018449E
:10AA08004270EEE7024900EB400008448270E8E734
:10AA18003494002008B5012202210020FFF7D4FF5A
:10AA280008B1072810D1072202210120FFF7CCFF27
:10AA380008B1072808D100210A220846FFF7C4FFF9
:10AA480010B1072808BF002008BD00000388102B9C
:10AA580010B502D0112B1ED010BD1A4C2168B1B907
:10AA680001220846FFF7B0FF08B1072824D10722C2
:10AA780002210120FFF7A8FF08B107281CD10422F2
:10AA880002210020FFF7A0FF08B1072814D123688E
:10AA980001332360E0E70B4A1368013B1360002B86
:10AAA800DAD1FFF7B7FF0028D6D0074B1B68002B79
:10AAB800D2D0BDE810401847034B1B68002BE6D0E6
:10AAC8009847E4E758940020549400200D4B10B5A3
:10AAD80018600C4629B10120FFF722FF40B102237C
:10AAE8002370094B1B6853B9BDE81040FFF792BFAC
:10AAF800FFF716FF08B10B23F2E72070F1E70020FB
:10AB080010BD00BF549400205894002075DF704792
:10AB180076DF70477ADF70477CDF70478ADF7047DF
:10AB28008BDF70478FDF704708B5FFF7F9FF0649DD
:10AB38000648FFF7F3FF30F0080303D0BDE80840EC
:10AB4800FCF722BA08BD00BF148A0020802F03003A
:10AB5800FCF71ABA10B501460446044801F04CF84F
:10AB680021460348BDE8104005F048BCD0950020B8
:10AB7800349600207FB50B78012B06460C4603D08F
:10AB8800022B2AD004B070BD294D2A884FF6FF73D6
:10AB98009A42F7D1274B4A88188827492A80000407
:10ABA80040F00300FBF752FF221D2988304605F0CC
:10ABB8007AFC08B1FCF7E8F90021288804F0BEFA0D
:10ABC80030F0080301D0FCF7DFF9304605F0D6FC79
:10ABD8000028D7D0FCF7D8F9D4E7164B0A8918888B
:10ABE8001649000440F00300FBF730FFA3798DF805
:10ABF8000230A389ADF80830A37A8DF8063023898E
:10AC0800A288ADF80430694623690D48ADF80020E4
:10AC1800039305F098FB30F00802B3D020F002024D
:10AC2800112AAFD043F201429042ABD0D2E700BF25
:10AC3800AE810020048100205B3003009E300300B9
:10AC4800189600200378012B03D142680AB9014AFB
:10AC5800137070476597002008B50C4B014658885B
:10AC68004FF6FF72904204D0D88990420CD101224D
:10AC780000E000220C2000FB023003F089FC18B130
:10AC8800BDE80840FCF780B908BD00BF0096002069
:10AC98000B78012B70B506460D4602D0022B2AD040
:10ACA80070BD204C22884FF6FF739A42F8D11E4B94
:10ACB8004A8818881D492280000440F00300FBF7E9
:10ACC800C5FE2A1D2188304601F0BEF808B1FCF700
:10ACD8005BF90021208804F031FA30F0080301D034
:10ACE800FCF752F9304601F089F80028D8D0BDE8C1
:10ACF8007040FCF749B900F07BFF0921044600F0D9
:10AD080059FF21460A4801F0F8F930F00802C7D087
:10AD180020F00202112AC3D043F201429042BFD070
:10AD2800E5E700BFAC81002004810020562F030016
:10AD38008095002008B570B1032815D10B4B0C493C
:10AD48001888000440F00300FBF77CFE0220BDE8F1
:10AD58000840FEF71BBC0321064801F0DCFE18B1D1
:10AD6800BDE80840FCF710B908BD00BF0481002009
:10AD7800C12F0300A494002010B50020FDF7BCFFEC
:10AD8800044668B9FFF7D0FE2046FEF7FFFB032113
:10AD9800044801F0C0FE18B1BDE81040FCF7F4B853
:10ADA80010BD00BFA494002030B5037885B00446D8
:10ADB8000D2B10D8DFE803F0070F110F220F2A39E7
:10ADC8000F350F3932391A4B1A491888000440F0E8
:10ADD8000300FBF737FE05B030BD154B40881D88D2
:10ADE80002F0E4F92D04237A009345F003050246A6
:10ADF800638811492846FBF73CFEECE7002303A9CA
:10AE080040888DF80C3004F0A7F9E4E7FDF79EFAC6
:10AE180030F00803DFD0FCF7B7F8DCE7FFF7ACFF4A
:10AE2800D9E700690028D6D0F5E78068FAE700BFBF
:10AE380004810020D52F0300FF2F0300FCF7A4B8DE
:10AE48002DE9F0410A4FDFF8308006460D46002410
:10AE5800AC4204DB0748BDE8F04101F0FDBA315DC2
:10AE6800384601F0F9FA404601F0F6FA0134EFE706
:10AE780041300300BD300300442503002DE9F041B3
:10AE880088B000F0F3FF0023CDE90333534BD979A1
:10AE98005A790131C9B20132D2B21D2988BF0121C4
:10AEA800FA2A5A7184BF00225A71D9710368012B9A
:10AEB80006465AD14A4D4B4FDFF8648100232B6078
:10AEC80047F0010703AB05AA42F222210120FDF752
:10AED80061FA002840D101A905A8FDF779F90028F1
:10AEE8003AD14FF47A744FF47A40B847013CFAD11A
:10AEF8000599404601F0B0FADDE901313A485B882E
:10AF0800621CE4B29C422AD3059B012B0AD1296812
:10AF180036480131296001F09FFA2B68012B04BFE4
:10AF28000023336008213048FFF78AFF2E49304854
:10AF380001F0E3F830F0080209D020F00202112AEB
:10AF480005D043F20142904201D0FCF71DF805A854
:10AF5800FDF762F90028B5D008B0BDE8F08111F816
:10AF680004C000F804C01446CAE7224B1B680A2B29
:10AF780006D1214B214819680131196001F06CFA9A
:10AF88001F4B1B68142B06D11E4B1C481968013136
:10AF9800196001F061FA1C4B1B681E2B06D11B4B74
:10AFA800164819680131196001F056FA184B1B68E8
:10AFB800282B06D1174B114819680131196001F087
:10AFC8004BFA154B1B68322BC6D1144B0B4819682A
:10AFD8000131196001F040FABEE700BF1C8A002069
:10AFE8009C940020502F03003F970020DB30030083
:10AFF800809500205097002088940020EC300300B2
:10B00800549700208C94002058970020909400209A
:10B018005C9700209494002060970020989400206A
:10B02800C430030010B5244C037823704378637050
:10B038008378A370C378E3700379237143796371CC
:10B048008379A37186B0C379E3710821204600F0A3
:10B05800B1FD1A4B1A4808210291CDE9003401F0DC
:10B06800FBF9694603A8FDF739F918B9154801F045
:10B07800F3F911E0022803D0052803D11248F6E7B6
:10B088001248F4E704280DD003280DD009280DD064
:10B0980008280DD007280DD003990D4801F0DCF9D8
:10B0A80006B010BD0B48E2E70B48E0E70B48DEE7C7
:10B0B8000B48DCE70B48DAE75C9500200100222208
:10B0C800E3300300F03003003D3103001B3103007F
:10B0D800873203005431030082310300BC3103007E
:10B0E800ED3103004532030070B5002488B0CDE986
:10B0F80003441F4D064603AB05AA42F22221012054
:10B10800FDF748F928B901A905A8FDF761F818B1B4
:10B118000124204608B070BDDDE901315B88421C7E
:10B12800C0B298421ED332782B789A421ED17278D8
:10B138006B789A421AD1B278AB789A4216D1F278E3
:10B14800EB789A4212D132792B799A420ED17479DE
:10B158006B79E31A5C425C4105A8FDF75DF80028AD
:10B16800C9D0D5E70C5C2C541046D8E70024F3E787
:10B17800479700200A7803789A4215D14A7843788D
:10B188009A4211D18A7883789A420DD1CA78C378C5
:10B198009A4209D10A7903799A4205D140794B79C3
:10B1A8001B1A584258417047002070472DE9F04F4C
:10B1B800044687B0808801F0F9FF80B2012802D0E8
:10B1C8002388262B31D16849204600F053FE674971
:10B1D800204605F090F82388212B00F0CD8270D806
:10B1E800102B04D0112B14D007B0BDE8F08F604BA2
:10B1F80060491888000440F00300FBF723FC022094
:10B20800FEF7D0F90320FEF7C1F9A088FFF724FD67
:10B21800EAE7574B58491888000440F00300FBF749
:10B2280011FC0320FEF7BEF9DEE7022801D01D2B32
:10B23800DAD15249204600F095FD5149204605F0E3
:10B248003CF923881D2B00F0AD802ED8112B54D04B
:10B258001B2B00F08482102BC6D1454D4949288804
:10B26800000440F00300FBF7EDFB474B1A884FF64C
:10B27800FF739A4203D0454A12889A422CD12888F3
:10B28800A2884349000440F00300FBF7DFFBA188D4
:10B29800404802F0BDF911281CD1A1883E4802F0AF
:10B2A800B7F9C8B1FBF770FE16E0212B00F06482F5
:10B2B80007D81F2B98D104F10801A088FFF726FCB6
:10B2C80050E13B2B01D0562B8ED11321A088FFF7DC
:10B2D8001FFC47E10028E5D1A088FFF7BDFC01204D
:10B2E800FEF754F901F080FF01284FF0000099D0D3
:10B2F800FEF74CF9FFF718FC76E7234DA2882B8858
:10B308009A420BD11A4B227A18882449000440F03B
:10B318000300FBF79BFB4FF6FF732B801B4EA388A4
:10B328003288934211D1124B227A18881C490004A2
:10B3380040F00300FBF78AFB4FF6FF733380FFF7FB
:10B34800F3FB0020FEF722F906E04FF6FF739A425E
:10B35800F5D02A889A42F2D001F046FF00287FF4FF
:10B3680043AF01205EE700BF8095002018960020BB
:10B3780004810020A82D0300BF2D0300D0950020D4
:10B3880034960020D82D0300AC810020AE81002027
:10B39800EC2D03007C840020488700201D2E03002C
:10B3A800452E0300A84AA18C1368206A01334FF088
:10B3B800A04513600323C5F87437A44A01F0CFFAF7
:10B3C800002800F0BF8194F91B2012F1430F4FF0C1
:10B3D8000053C0F26D81C5F8083500F015FF9C4B8D
:10B3E800A27B0192DA70E27B94F80B8002921A71C8
:10B3F800227C277B03925A710269667B954C83F8FD
:10B40800008001329A71C2685F700546214618466D
:10B418009E70DA71FFF7AEFEDFF888B2DFF888A217
:10B42800DFF8889250BB8A4B8B491846FFF7A2FE7B
:10B4380020BB874B89491846FFF79CFE002840F03F
:10B448009780DBF80030002B40F09280844B1A780C
:10B45800002A40F08D80019BE370029B2371814894
:10B46800039B637184F800806770A67000F0F4FF96
:10B478007D4A7B4B0A21116001221A70DBF80030EB
:10B488000A2B20DD73497248FFF774FED8B177485C
:10B49800DFF8CC8100F0E0FF734B6E4800271F6097
:10B4A800CBF80070FFF720FE714B06461870002895
:10B4B80000F0A4806F4800F0CFFF6F4800F0CCFF89
:10B4C80088F800702770DAF800300A2B21DD624C0A
:10B4D8005F482146FFF74EFED8B16848DFF8B481CF
:10B4E80000F0BAFF664B674800271F60CAF8007073
:10B4F800FFF7FAFD5E4B06461870002800F08A80B8
:10B508005C4800F0A9FF5C4800F0A6FF88F80070CE
:10B518002770D9F800300A2B20DD504C4C482146C2
:10B52800FFF728FED0B15848DFF8708100F094FF8B
:10B53800564B002720461F60C9F80070FFF7D4FD5E
:10B548004B4B06461870002871D04A4800F084FF1B
:10B55800494800F081FF88F8007027704C490020A6
:10B56800FFF7DCFA00283FF43FAEFBF70DFD3BE6A2
:10B578003A493748FFF7FEFDD0B9DAF80030BBB9D1
:10B58800444A1378A3B9344B019ADA70029A1A71B3
:10B598004148039A5A7183F800805F709E7000F0EA
:10B5A8005BFF374B3B4A142119600123137065E791
:10B5B8002A4B27481946FFF7DDFD00287FF45EAFC8
:10B5C800D9F80020002A7FF459AF344A234B117868
:10B5D80000297FF453AF019ADA70029A1A71304841
:10B5E800039A5A7183F800805F709E7000F034FFF0
:10B5F800264B2A4A1E2119600123D7E72B691548D3
:10B608000133A371EB68E371FFF70CFD88F8006064
:10B61800267058E72B690133A371EB68E371204664
:10B62800FFF700FD0D4B88F800601E7071E72B696D
:10B6380009480133A371EB68E371FFF7F3FC88F85D
:10B64800006026708AE700BF84940020C0300300A1
:10B658007C9400205C940020649400206C9400206A
:10B668004D9700206D2E030050970020A32E030055
:10B67800A0940020B82E0300BE2E0300C12E0300A4
:10B688005497002074940020D32E0300589700206C
:10B69800148A00204E9700207F2E03004F97002029
:10B6A800912E0300889400208C9400209094002010
:10B6B8004B32C5F80C35BFF651AF334C25680F2D0A
:10B6C80011DD32493248FFF755FD08B9142D0ADD5E
:10B6D800304800F0C1FE304A002313602F4A23602F
:10B6E80013702A4A13702E4C25680F2D11DD2D4931
:10B6F8002748FFF73FFD08B9142D0ADD2A4800F056
:10B70800ABFE2A4A00231360294A23601370254A96
:10B718001370284C25680F2D7FF720AF26491C4849
:10B72800FFF728FD10B9142D7FF718AF234800F054
:10B7380093FE234A00231360224A236013701E4A93
:10B7480013700BE72049FFF7E9F908B1FBF71CFC78
:10B758004FF0A0434FF00052C3F80C2544E5237A7C
:10B76800022B7FF441AD194B19491888000440F0A9
:10B778000300FBF767F937E50023ADF8143005A996
:10B78800A088FFF7CFF9EDE6889400205C940020AC
:10B798007C940020E52E0300509700204D97002050
:10B7A8008C94002064940020FC2E03005497002001
:10B7B8004E970020909400206C940020102F0300D6
:10B7C800589700204F970020148A002004810020F9
:10B7D800242F030008B5012000F036FDBDE808401D
:10B7E8000146014800F038BE45300300024B1B7883
:10B7F8000BB1FFF7EFBF70476497002073B5164B86
:10B80800164D00261E7032223B23CDE900320C2152
:10B8180017231B2240F2E47000F0DAFC2888104954
:10B82800000440F00300FBF70DF92C88304600F0C7
:10B838000BFD240444F0030402460A492046FBF7A2
:10B8480005F928880849000440F0030002B0BDE863
:10B858007040FBF7F7B800BF649700200481002010
:10B86800B030030050250300BB30030000B54FF48F
:10B878000041AFB00020FAF721FF08B1FBF784FBC5
:10B88800FAF740FE00F064FC04219B4800F084FCB9
:10B89800FBF7D0FD08B1FBF777FB0121974A9848E1
:10B8A800FBF7F8FD00210320FFF740F808B1FBF78C
:10B8B8006BFB03A90020FFF709F908B1FBF764FB4C
:10B8C8009DF80C40FDF772FC08B1FBF75DFB04F036
:10B8D800DFFE08B1FBF758FB002303A901200393FF
:10B8E80004F0A6FF08B1FBF74FFB03A805F04CF8DE
:10B8F80008B1FBF749FB112382488DF8083006F0A0
:10B9080023F9804982B202A8FFF706F908B1FBF7CC
:10B918003BFB0021082203A806F0C1F87A494FF042
:10B92800C87303A8CDE90313FFF7F4F808B1FBF7D0
:10B938002BFB0021754802F009FD08B1FBF724FB39
:10B948001C22002103A806F0AAF800234FF4203295
:10B95800CDE903324FF47022059203228DF81820A6
:10B968004FF6FF72ADF81A2008930122684B8DF844
:10B978001C2003A8099301F02BFB08B1FBF704FB7B
:10B98800644801F00BFE08B1FBF7FEFA03F082FBF6
:10B9980008B1FBF7F9FA0522002103A806F07FF8A1
:10B9A800039B03F07C425C4B134303939DF81030D8
:10B9B80023F0030343F0030303A88DF8103003F0CA
:10B9C800B3FB08B1FBF7E0FA544803F095FB08B164
:10B9D800FBF7DAFA524B5348039303A900F06AF9CC
:10B9E80008B1FBF7D1FA504B5048039303A904F070
:10B9F80041FD08B1FBF7C8FA4D4B4E48029302A926
:10BA080002F0B4FD08B1FBF7BFFA02A94A4802F0F8
:10BA1800ADFD08B1FBF7B8FA03230021142203A8EF
:10BA28008DF8073006F03BF80023039301238DF8C7
:10BA380010300DF107030593404B069303A911231A
:10BA48003F488DF81C3000F053FA08B1FBF79CFA18
:10BA5800AC22002103A806F022F802238DF80C304E
:10BA680040F20163374AADF80E300123ADF81C30BF
:10BA780008928DF888304FF4967244F25063CDE9FD
:10BA8800252303A9304B31482C9300F0D2FF08B18D
:10BA9800FBF77AFA2D48012100F0C8FF2C48FCF783
:10BAA8007DFA08B9FCF790FA2A4D2B4800224FF48A
:10BAB8000041FBF701FDFFF7A1FE28882749000494
:10BAC80040F00300FAF7BEFF022C12D1288824495F
